S00D00007461736B322E7372656332
S11300000C9434000C9446000C9446000C94460066
S11300100C9446000C9446000C9446000C94460044
S11300200C9446000C9446000C9446000C94460034
S11300300C9446000C9446000C9446000C94460024
S11300400C9446000C9446000C9446000C94460014
S11300500C9446000C9448000C9446000C94460002
S11300600C9446000C94460011241FBECFEFD8E038
S1130070DEBFCDBF21E0A0E0B1E001C01D92A13000
S1130080B207E1F70E9466000C9496000C940000FD
S11300901F920F920FB60F9211248F9380917900C3
S11300A0809300018F910F900FBE0F901F901895B1
S11300B016BC8091000187BD82E084BD85E085BDCA
S11300C0A99BFECF15BC82E085BB0895ECE7F0E068
S11300D01082808180648083808180628083EAE7EB
S11300E0F0E08081876080838081806280831092C9
S11300F07B008081806880838081886080838081A8
S1130100806480838FEF84B9789401E012E0D4E0B6
S1130110C8E005B90E94580015B90E945800D5B925
S11301200E945800C5B90E945800F3CFF894FFCF3D
S9030000FC
