:100000000C9434000C9446000C9446000C9446006A
:100010000C9446000C9446000C9446000C94460048
:100020000C9446000C9446000C9446000C94460038
:100030000C9446000C9446000C9446000C94460028
:100040000C9446000C9446000C9446000C94460018
:100050000C9446000C9448000C9446000C94460006
:100060000C9446000C94460011241FBECFEFD8E03C
:10007000DEBFCDBF21E0A0E0B1E001C01D92A13004
:10008000B207E1F70E9458000C9496000C9400000F
:100090001F920F920FB60F9211248F9380917900C7
:1000A000809300018F910F900FBE0F901F901895B5
:1000B0009FEF94B9E0E8F0E0808182688083E1E816
:1000C000F0E080818A61808325E430E1309387000D
:1000D00020938600ECE7F0E01082808180648083CA
:1000E000808180628083EAE7F0E08081876080839E
:1000F00080818062808310927B0080818068808311
:1001000080818860808380818064808394B97894C2
:10011000E8E8F0E08091000190E09183808383EC37
:1001200099E00197F1F700C00000F4CFF894FFCFF9
:00000001FF
