S01700004763634170706C69636174696F6E312E737265635B
S11300000C9434000C9448000C9446000C94460064
S11300100C9446000C9446000C9446000C94460044
S11300200C9446000C9446000C9446000C94460034
S11300300C9446000C9446000C9446000C94460024
S11300400C9446000C9446000C9446000C94460014
S11300500C9446000C9464000C9446000C944600E6
S11300600C9446000C94460011241FBECFEFD8E038
S1130070DEBFCDBF21E0A0E0B1E001C01D92A13000
S1130080B207E1F70E9474000C94B9000C940000CC
S11300901F920F920FB60F9211242F938F939F9359
S11300A088B1809588B92FEF84E39CE0215080408B
S11300B09040E1F700C000009F918F912F910F9025
S11300C00FBE0F901F9018951F920F920FB60F92AC
S11300D011248F9380917900809300018F910F9068
S11300E00FBE0F901F901895ECE7F0E0108280810E
S11300F080648083808180628083EAE7F0E080818D
S11301008760808380818062808310927B008081FD
S1130110806880838081886080838081806480831C
S11301208FEF84B91AB887B9E0E8F0E0808180687D
S11301308083808182608083E1E8F0E0808188614F
S113014080838081816080838FEF93E09093870028
S113015080938600E89AE9E6F0E0808182608083FB
S11301607894E8E8F0E08091000190E09183808346
S1090170FACFF894FFCF62
S9030000FC
